:03000000020100FA
:03000300020118DF
:0300130002012FB8
:10010000D2AFD288D28AD2A8D2AAD2B87590FF3103
:1001100066759000316680F4316612011E3274FEFD
:100120007F08120125F590233166DFF980DE223148
:10013000661201353279F08990316679FF89903104
:100140006679F08990316679FF89903166790F89F7
:1001500090316679FF89903166790F89903166799F
:10016000FF8990316622000000C030C031C0327576
:1001700030027531AF753248D532FDD531FAD53000
:08018000F7D032D031D030225B
:00000001FF
