:03000000020100FA
:100100007593007594FF7591007592FF7595007554
:1001100096FF75F0FE85F080743FF590120196759C
:10012000F0FD85F0807406F59012019675F0FB8560
:10013000F080745BF59012019675F0F785F080748D
:100140004FF59012019675F0EF85F0807466F5908A
:1001500012019675F0DF85F080746DF590120196AE
:1001600075F0BF85F080747DF59012019675F07F73
:1001700085F0807407F590120196020100000000DE
:1001800000C030C031753012753130D531FDD530F9
:10019000FAD031D03022C030C03175300975319677
:0B01A000D531FDD530FAD031D030222F
:00000001FF
