:03000000020100FA
:03000300020123D4
:100100007593007594FF7591007592FF7595007554
:1001100096FF758150D288D2B8D2A8D2AF75A00010
:100120007590F0C2AF12015D74FE7B04758080F59E
:10013000908590F0B5F00523DBF2801990100078DF
:10014000FF08B81002800EE893B5F0F5901100E8B2
:1001500093F5808000C289D2AF7590F03200000024
:10016000C030C03175305775310AD531FDD530FA00
:05017000D031D0302267
:101000007EBEDEEE7DBDDDED7BBBDBEB77B7D7E7EC
:101100003F065B4F666D7D077F6F777C395E797137
:00000001FF
