:03000000020100FA
:1001000090017879007F407D147E10EFF975300101
:10011000753100E993F53209E993F53312013C1288
:10012000016FC3E53033F530E53133F531091EBEDB
:1001300000E1DDD51F1FBF00CE020100C294C293B3
:100140007A08AB33AC31C292EB33FB9291EC33FCC7
:100150009290D292DAF07A08AB32AC30C292EB33A2
:10016000FB9291EC33FC9290D292DAF0D293227A05
:10017000327B0ADBFEDAFA22DFFDDFFD0080DFFDE5
:10018000FFFBEFFBEFFBDFFDDFFDBFFE7FFFBFFEF1
:10019000DFFDEFFBF3E7FC9FDFFDDFFD0080DFFD10
:1001A000FFFBEFFBEFFBDFFDDFFDBFFE7FFFBFFED1
:1001B000DFFDEFFBF3E7FC9FDFFDDFFD0080DFFDF0
:1001C000FFFBEFFBEFFBDFFDDFFDBFFE7FFFBFFEB1
:0801D000DFFDEFFBF3E7FC9FEC
:00000001FF
