:03000000020300F8
:1000500020022002FF7F200200041004100420026E
:100060002002400180004001200210040C180360AF
:1000700020022002FF7F200200041004100420024E
:100080002002400180004001200210040C1803608F
:100300007F00EF90007093F540EF90008093F541EF
:10031000EF90005093F542EF90006093F543712603
:100320000FBF10DE80DAAE40AD427C087139AE41BD
:10033000AD437C087139714A22C292EE339290FE2D
:10034000ED339291FDD292DCF022D294C293D293FB
:10035000C29471552200C030C031753005753148E6
:0B036000D531FDD530FAD031D030226D
:00000001FF
